{
    "contractName": "Monte",
    "abi": [
        {
            "inputs": [],
            "stateMutability": "nonpayable",
            "type": "constructor"
        },
        {
            "anonymous": false,
            "inputs": [
                {
                    "indexed": true,
                    "internalType": "address",
                    "name": "owner",
                    "type": "address"
                },
                {
                    "indexed": true,
                    "internalType": "address",
                    "name": "spender",
                    "type": "address"
                },
                {
                    "indexed": false,
                    "internalType": "uint256",
                    "name": "value",
                    "type": "uint256"
                }
            ],
            "name": "Approval",
            "type": "event"
        },
        {
            "anonymous": false,
            "inputs": [
                {
                    "indexed": true,
                    "internalType": "address",
                    "name": "previousOwner",
                    "type": "address"
                },
                {
                    "indexed": true,
                    "internalType": "address",
                    "name": "newOwner",
                    "type": "address"
                }
            ],
            "name": "OwnershipTransferred",
            "type": "event"
        },
        {
            "anonymous": false,
            "inputs": [
                {
                    "indexed": false,
                    "internalType": "uint256",
                    "name": "ethAmount",
                    "type": "uint256"
                },
                {
                    "indexed": false,
                    "internalType": "uint256",
                    "name": "tokenAmount",
                    "type": "uint256"
                }
            ],
            "name": "SwapedTokenForEth",
            "type": "event"
        },
        {
            "anonymous": false,
            "inputs": [
                {
                    "indexed": true,
                    "internalType": "address",
                    "name": "from",
                    "type": "address"
                },
                {
                    "indexed": true,
                    "internalType": "address",
                    "name": "to",
                    "type": "address"
                },
                {
                    "indexed": false,
                    "internalType": "uint256",
                    "name": "value",
                    "type": "uint256"
                }
            ],
            "name": "Transfer",
            "type": "event"
        },
        {
            "inputs": [
                {
                    "internalType": "address",
                    "name": "owner",
                    "type": "address"
                },
                {
                    "internalType": "address",
                    "name": "spender",
                    "type": "address"
                }
            ],
            "name": "allowance",
            "outputs": [
                {
                    "internalType": "uint256",
                    "name": "",
                    "type": "uint256"
                }
            ],
            "stateMutability": "view",
            "type": "function"
        },
        {
            "inputs": [
                {
                    "internalType": "address",
                    "name": "spender",
                    "type": "address"
                },
                {
                    "internalType": "uint256",
                    "name": "amount",
                    "type": "uint256"
                }
            ],
            "name": "approve",
            "outputs": [
                {
                    "internalType": "bool",
                    "name": "",
                    "type": "bool"
                }
            ],
            "stateMutability": "nonpayable",
            "type": "function"
        },
        {
            "inputs": [
                {
                    "internalType": "address",
                    "name": "account",
                    "type": "address"
                }
            ],
            "name": "balanceOf",
            "outputs": [
                {
                    "internalType": "uint256",
                    "name": "",
                    "type": "uint256"
                }
            ],
            "stateMutability": "view",
            "type": "function"
        },
        {
            "inputs": [],
            "name": "decimals",
            "outputs": [
                {
                    "internalType": "uint8",
                    "name": "",
                    "type": "uint8"
                }
            ],
            "stateMutability": "view",
            "type": "function"
        },
        {
            "inputs": [
                {
                    "internalType": "address",
                    "name": "spender",
                    "type": "address"
                },
                {
                    "internalType": "uint256",
                    "name": "subtractedValue",
                    "type": "uint256"
                }
            ],
            "name": "decreaseAllowance",
            "outputs": [
                {
                    "internalType": "bool",
                    "name": "",
                    "type": "bool"
                }
            ],
            "stateMutability": "nonpayable",
            "type": "function"
        },
        {
            "inputs": [
                {
                    "internalType": "address",
                    "name": "spender",
                    "type": "address"
                },
                {
                    "internalType": "uint256",
                    "name": "addedValue",
                    "type": "uint256"
                }
            ],
            "name": "increaseAllowance",
            "outputs": [
                {
                    "internalType": "bool",
                    "name": "",
                    "type": "bool"
                }
            ],
            "stateMutability": "nonpayable",
            "type": "function"
        },
        {
            "inputs": [],
            "name": "isTaxActive",
            "outputs": [
                {
                    "internalType": "bool",
                    "name": "",
                    "type": "bool"
                }
            ],
            "stateMutability": "view",
            "type": "function"
        },
        {
            "inputs": [
                {
                    "internalType": "address",
                    "name": "",
                    "type": "address"
                }
            ],
            "name": "isTaxless",
            "outputs": [
                {
                    "internalType": "bool",
                    "name": "",
                    "type": "bool"
                }
            ],
            "stateMutability": "view",
            "type": "function"
        },
        {
            "inputs": [],
            "name": "minTokenBeforeSwap",
            "outputs": [
                {
                    "internalType": "uint256",
                    "name": "",
                    "type": "uint256"
                }
            ],
            "stateMutability": "view",
            "type": "function"
        },
        {
            "inputs": [],
            "name": "name",
            "outputs": [
                {
                    "internalType": "string",
                    "name": "",
                    "type": "string"
                }
            ],
            "stateMutability": "view",
            "type": "function"
        },
        {
            "inputs": [],
            "name": "owner",
            "outputs": [
                {
                    "internalType": "address",
                    "name": "",
                    "type": "address"
                }
            ],
            "stateMutability": "view",
            "type": "function"
        },
        {
            "inputs": [],
            "name": "renounceOwnership",
            "outputs": [],
            "stateMutability": "nonpayable",
            "type": "function"
        },
        {
            "inputs": [
                {
                    "internalType": "bool",
                    "name": "_value",
                    "type": "bool"
                }
            ],
            "name": "setIsTaxless",
            "outputs": [],
            "stateMutability": "nonpayable",
            "type": "function"
        },
        {
            "inputs": [
                {
                    "internalType": "address",
                    "name": "_stakingPool",
                    "type": "address"
                }
            ],
            "name": "setStakingPool",
            "outputs": [],
            "stateMutability": "nonpayable",
            "type": "function"
        },
        {
            "inputs": [
                {
                    "internalType": "bool",
                    "name": "_value",
                    "type": "bool"
                }
            ],
            "name": "setTaxActive",
            "outputs": [],
            "stateMutability": "nonpayable",
            "type": "function"
        },
        {
            "inputs": [
                {
                    "internalType": "uint256",
                    "name": "_taxFee",
                    "type": "uint256"
                }
            ],
            "name": "setTaxFee",
            "outputs": [],
            "stateMutability": "nonpayable",
            "type": "function"
        },
        {
            "inputs": [],
            "name": "stakingPool",
            "outputs": [
                {
                    "internalType": "address",
                    "name": "",
                    "type": "address"
                }
            ],
            "stateMutability": "view",
            "type": "function"
        },
        {
            "inputs": [],
            "name": "symbol",
            "outputs": [
                {
                    "internalType": "string",
                    "name": "",
                    "type": "string"
                }
            ],
            "stateMutability": "view",
            "type": "function"
        },
        {
            "inputs": [],
            "name": "taxFee",
            "outputs": [
                {
                    "internalType": "uint256",
                    "name": "",
                    "type": "uint256"
                }
            ],
            "stateMutability": "view",
            "type": "function"
        },
        {
            "inputs": [],
            "name": "totalSupply",
            "outputs": [
                {
                    "internalType": "uint256",
                    "name": "",
                    "type": "uint256"
                }
            ],
            "stateMutability": "view",
            "type": "function"
        },
        {
            "inputs": [
                {
                    "internalType": "address",
                    "name": "recipient",
                    "type": "address"
                },
                {
                    "internalType": "uint256",
                    "name": "amount",
                    "type": "uint256"
                }
            ],
            "name": "transfer",
            "outputs": [
                {
                    "internalType": "bool",
                    "name": "",
                    "type": "bool"
                }
            ],
            "stateMutability": "nonpayable",
            "type": "function"
        },
        {
            "inputs": [
                {
                    "internalType": "address",
                    "name": "sender",
                    "type": "address"
                },
                {
                    "internalType": "address",
                    "name": "recipient",
                    "type": "address"
                },
                {
                    "internalType": "uint256",
                    "name": "amount",
                    "type": "uint256"
                }
            ],
            "name": "transferFrom",
            "outputs": [
                {
                    "internalType": "bool",
                    "name": "",
                    "type": "bool"
                }
            ],
            "stateMutability": "nonpayable",
            "type": "function"
        },
        {
            "inputs": [
                {
                    "internalType": "address",
                    "name": "newOwner",
                    "type": "address"
                }
            ],
            "name": "transferOwnership",
            "outputs": [],
            "stateMutability": "nonpayable",
            "type": "function"
        },
        {
            "inputs": [],
            "name": "uniswapV2Pair",
            "outputs": [
                {
                    "internalType": "address",
                    "name": "",
                    "type": "address"
                }
            ],
            "stateMutability": "view",
            "type": "function"
        },
        {
            "inputs": [],
            "name": "uniswapV2Router",
            "outputs": [
                {
                    "internalType": "contract IUniswapV2Router02",
                    "name": "",
                    "type": "address"
                }
            ],
            "stateMutability": "view",
            "type": "function"
        }
    ],
    "bytecode": "608060405261012c600955683635c9adc5dea00000600c553480156200002457600080fd5b506040518060400160405280600d81526020016c4d6f6e74652e66696e616e636560981b8152506040518060400160405280600381526020016213539560ea1b815250600062000079620002e560201b60201c565b600080546001600160a01b0319166001600160a01b0383169081178255604051929350917f8be0079c531659141344cd1fd0a4f28419497f9722a3daafe3b4186f6b6457e0908290a3508151620000d890600490602085019062000463565b508051620000ee90600590602084019062000463565b505060068054747a250d5630b4cf539739df2c5dacb4c659f2488d00610100600160a81b031960ff199092166012179190911617908190556040805163c45a015560e01b815290516101009092046001600160a01b0316925063c45a0155916004808301926020929190829003018186803b1580156200016d57600080fd5b505afa15801562000182573d6000803e3d6000fd5b505050506040513d60208110156200019957600080fd5b5051600654604080516315ab88c960e31b815290516001600160a01b039384169363c9c653969330936101009091049091169163ad5c464891600480820192602092909190829003018186803b158015620001f357600080fd5b505afa15801562000208573d6000803e3d6000fd5b505050506040513d60208110156200021f57600080fd5b5051604080516001600160e01b031960e086901b1681526001600160a01b0393841660048201529290911660248301525160448083019260209291908290030181600087803b1580156200027257600080fd5b505af115801562000287573d6000803e3d6000fd5b505050506040513d60208110156200029e57600080fd5b5051600780546001600160a01b0319166001600160a01b03909216919091179055620002df620002cd620002e5565b6a084595161401484a000000620002e9565b620004ff565b3390565b6001600160a01b03821662000345576040805162461bcd60e51b815260206004820152601f60248201527f45524332303a206d696e7420746f20746865207a65726f206164647265737300604482015290519081900360640190fd5b6200035360008383620003fc565b6200036f816003546200040160201b62000be01790919060201c565b6003556001600160a01b038216600090815260016020908152604090912054620003a491839062000be062000401821b17901c565b6001600160a01b03831660008181526001602090815260408083209490945583518581529351929391927fddf252ad1be2c89b69c2b068fc378daa952ba7f163c4a11628f55a4df523b3ef9281900390910190a35050565b505050565b6000828201838110156200045c576040805162461bcd60e51b815260206004820152601b60248201527f536166654d6174683a206164646974696f6e206f766572666c6f770000000000604482015290519081900360640190fd5b9392505050565b828054600181600116156101000203166002900490600052602060002090601f016020900481019282601f10620004a657805160ff1916838001178555620004d6565b82800160010185558215620004d6579182015b82811115620004d6578251825591602001919060010190620004b9565b50620004e4929150620004e8565b5090565b5b80821115620004e45760008155600101620004e9565b611529806200050f6000396000f3fe608060405234801561001057600080fd5b50600436106101735760003560e01c806370a08231116100de578063a457c2d711610097578063c4081a4c11610071578063c4081a4c1461041e578063d178b6011461043b578063dd62ed3e1461045a578063f2fde38b1461048857610173565b8063a457c2d7146103a0578063a5ae2d2f146103cc578063a9059cbb146103f257610173565b806370a0823114610352578063715018a6146103785780638da5cb5b1461038057806395d89b411461038857806398a0dd0914610390578063a071dcf41461039857610173565b80632ffc1628116101305780632ffc1628146102b15780633028f63a146102d2578063313ce567146102f85780633950935114610316578063419adcd81461034257806349bd5a5e1461034a57610173565b806306fdde0314610178578063095ea7b3146101f55780630c56ae3b146102355780631694505e1461025957806318160ddd1461026157806323b872dd1461027b575b600080fd5b6101806104ae565b6040805160208082528351818301528351919283929083019185019080838360005b838110156101ba5781810151838201526020016101a2565b50505050905090810190601f1680156101e75780820380516001836020036101000a031916815260200191505b509250505060405180910390f35b6102216004803603604081101561020b57600080fd5b506001600160a01b038135169060200135610544565b604080519115158252519081900360200190f35b61023d610562565b604080516001600160a01b039092168252519081900360200190f35b61023d610571565b610269610585565b60408051918252519081900360200190f35b6102216004803603606081101561029157600080fd5b506001600160a01b0381358116916020810135909116906040013561058b565b6102d0600480360360208110156102c757600080fd5b50351515610614565b005b6102d0600480360360208110156102e857600080fd5b50356001600160a01b0316610689565b61030061070d565b6040805160ff9092168252519081900360200190f35b6102216004803603604081101561032c57600080fd5b506001600160a01b038135169060200135610716565b610269610764565b61023d61076a565b6102696004803603602081101561036857600080fd5b50356001600160a01b0316610779565b6102d0610794565b61023d610840565b61018061084f565b6102216108b0565b6102696108b9565b610221600480360360408110156103b657600080fd5b506001600160a01b0381351690602001356108bf565b610221600480360360208110156103e257600080fd5b50356001600160a01b0316610927565b6102216004803603604081101561040857600080fd5b506001600160a01b03813516906020013561093c565b6102d06004803603602081101561043457600080fd5b5035610950565b6102d06004803603602081101561045157600080fd5b50351515610a19565b6102696004803603604081101561047057600080fd5b506001600160a01b0381358116916020013516610ab3565b6102d06004803603602081101561049e57600080fd5b50356001600160a01b0316610ade565b60048054604080516020601f600260001961010060018816150201909516949094049384018190048102820181019092528281526060939092909183018282801561053a5780601f1061050f5761010080835404028352916020019161053a565b820191906000526020600020905b81548152906001019060200180831161051d57829003601f168201915b5050505050905090565b6000610558610551610c3a565b8484610c3e565b5060015b92915050565b6008546001600160a01b031681565b60065461010090046001600160a01b031681565b60035490565b6000610598848484610d2a565b6008546001600160a01b03166105ac610c3a565b6001600160a01b031614156105c35750600161060d565b610609846105cf610c3a565b6106048560405180606001604052806028815260200161143e602891396105fd8a6105f8610c3a565b610ab3565b9190610db2565b610c3e565b5060015b9392505050565b61061c610c3a565b6001600160a01b031661062d610840565b6001600160a01b031614610676576040805162461bcd60e51b81526020600482018190526024820152600080516020611466833981519152604482015290519081900360640190fd5b600a805460ff1916911515919091179055565b610691610c3a565b6001600160a01b03166106a2610840565b6001600160a01b0316146106eb576040805162461bcd60e51b81526020600482018190526024820152600080516020611466833981519152604482015290519081900360640190fd5b600880546001600160a01b0319166001600160a01b0392909216919091179055565b60065460ff1690565b6000610558610723610c3a565b846106048560026000610734610c3a565b6001600160a01b03908116825260208083019390935260409182016000908120918c168152925290205490610be0565b600c5481565b6007546001600160a01b031681565b6001600160a01b031660009081526001602052604090205490565b61079c610c3a565b6001600160a01b03166107ad610840565b6001600160a01b0316146107f6576040805162461bcd60e51b81526020600482018190526024820152600080516020611466833981519152604482015290519081900360640190fd5b600080546040516001600160a01b03909116907f8be0079c531659141344cd1fd0a4f28419497f9722a3daafe3b4186f6b6457e0908390a3600080546001600160a01b0319169055565b6000546001600160a01b031690565b60058054604080516020601f600260001961010060018816150201909516949094049384018190048102820181019092528281526060939092909183018282801561053a5780601f1061050f5761010080835404028352916020019161053a565b600a5460ff1681565b60095481565b60006105586108cc610c3a565b84610604856040518060600160405280602581526020016114cf60259139600260006108f6610c3a565b6001600160a01b03908116825260208083019390935260409182016000908120918d16815292529020549190610db2565b600b6020526000908152604090205460ff1681565b6000610558610949610c3a565b8484610d2a565b610958610c3a565b6001600160a01b0316610969610840565b6001600160a01b0316146109b2576040805162461bcd60e51b81526020600482018190526024820152600080516020611466833981519152604482015290519081900360640190fd5b6000811180156109c35750600a8111155b610a14576040805162461bcd60e51b815260206004820152601a60248201527f4d4e543a2054617820466565206f7574206f662072616e676521000000000000604482015290519081900360640190fd5b600955565b610a21610c3a565b6001600160a01b0316610a32610840565b6001600160a01b031614610a7b576040805162461bcd60e51b81526020600482018190526024820152600080516020611466833981519152604482015290519081900360640190fd5b80600b6000610a88610c3a565b6001600160a01b031681526020810191909152604001600020805460ff191691151591909117905550565b6001600160a01b03918216600090815260026020908152604080832093909416825291909152205490565b610ae6610c3a565b6001600160a01b0316610af7610840565b6001600160a01b031614610b40576040805162461bcd60e51b81526020600482018190526024820152600080516020611466833981519152604482015290519081900360640190fd5b6001600160a01b038116610b855760405162461bcd60e51b81526004018080602001828103825260268152602001806113af6026913960400191505060405180910390fd5b600080546040516001600160a01b03808516939216917f8be0079c531659141344cd1fd0a4f28419497f9722a3daafe3b4186f6b6457e091a3600080546001600160a01b0319166001600160a01b0392909216919091179055565b60008282018381101561060d576040805162461bcd60e51b815260206004820152601b60248201527f536166654d6174683a206164646974696f6e206f766572666c6f770000000000604482015290519081900360640190fd5b3390565b6001600160a01b038316610c835760405162461bcd60e51b81526004018080602001828103825260248152602001806114ab6024913960400191505060405180910390fd5b6001600160a01b038216610cc85760405162461bcd60e51b81526004018080602001828103825260228152602001806113d56022913960400191505060405180910390fd5b6001600160a01b03808416600081815260026020908152604080832094871680845294825291829020859055815185815291517f8c5be1e5ebec7d5bd14f71427d1e84f3dd0314c0f7b2291e5b200ac8c7c3b9259281900390910190a3505050565b600a54819060ff168015610d4c57506008546001600160a01b03858116911614155b15610d8f576000610d74612710610d6e60095486610e4990919063ffffffff16565b90610ea2565b9050610d81853083610f09565b610d8b8382611066565b9150505b600d5460ff16610da157610da16110c3565b610dac848483610f09565b50505050565b60008184841115610e415760405162461bcd60e51b81526004018080602001828103825283818151815260200191508051906020019080838360005b83811015610e06578181015183820152602001610dee565b50505050905090810190601f168015610e335780820380516001836020036101000a031916815260200191505b509250505060405180910390fd5b505050900390565b600082610e585750600061055c565b82820282848281610e6557fe5b041461060d5760405162461bcd60e51b815260040180806020018281038252602181526020018061141d6021913960400191505060405180910390fd5b6000808211610ef8576040805162461bcd60e51b815260206004820152601a60248201527f536166654d6174683a206469766973696f6e206279207a65726f000000000000604482015290519081900360640190fd5b818381610f0157fe5b049392505050565b6001600160a01b038316610f4e5760405162461bcd60e51b81526004018080602001828103825260258152602001806114866025913960400191505060405180910390fd5b6001600160a01b038216610f935760405162461bcd60e51b815260040180806020018281038252602381526020018061138c6023913960400191505060405180910390fd5b610f9e838383611386565b610fdb816040518060600160405280602681526020016113f7602691396001600160a01b0386166000908152600160205260409020549190610db2565b6001600160a01b03808516600090815260016020526040808220939093559084168152205461100a9082610be0565b6001600160a01b0380841660008181526001602090815260409182902094909455805185815290519193928716927fddf252ad1be2c89b69c2b068fc378daa952ba7f163c4a11628f55a4df523b3ef92918290030190a3505050565b6000828211156110bd576040805162461bcd60e51b815260206004820152601e60248201527f536166654d6174683a207375627472616374696f6e206f766572666c6f770000604482015290519081900360640190fd5b50900390565b600d805460ff1916600117905560006110db30610779565b60408051600280825260608083018452939450479392602083019080368337019050509050308160008151811061110e57fe5b60200260200101906001600160a01b031690816001600160a01b031681525050600660019054906101000a90046001600160a01b03166001600160a01b031663ad5c46486040518163ffffffff1660e01b815260040160206040518083038186803b15801561117c57600080fd5b505afa158015611190573d6000803e3d6000fd5b505050506040513d60208110156111a657600080fd5b50518151829060019081106111b757fe5b6001600160a01b0392831660209182029290920101526006546111e291309161010090041685610c3e565b600660019054906101000a90046001600160a01b03166001600160a01b031663791ac9478460008430426040518663ffffffff1660e01b81526004018086815260200185815260200180602001846001600160a01b03168152602001838152602001828103825285818151815260200191508051906020019060200280838360005b8381101561127c578181015183820152602001611264565b505050509050019650505050505050600060405180830381600087803b1580156112a557600080fd5b505af11580156112b9573d6000803e3d6000fd5b505050506112d0824761106690919063ffffffff16565b604080518581526020810183905281519294507fc7930294ac86944079f9f4a60abedac1187a74a770c6928ea39d9455ebeaf90f929081900390910190a1600860009054906101000a90046001600160a01b03166001600160a01b031663e4fc6b6d476040518263ffffffff1660e01b81526004016000604051808303818588803b15801561135e57600080fd5b505af1158015611372573d6000803e3d6000fd5b5050600d805460ff19169055505050505050565b50505056fe45524332303a207472616e7366657220746f20746865207a65726f20616464726573734f776e61626c653a206e6577206f776e657220697320746865207a65726f206164647265737345524332303a20617070726f766520746f20746865207a65726f206164647265737345524332303a207472616e7366657220616d6f756e7420657863656564732062616c616e6365536166654d6174683a206d756c7469706c69636174696f6e206f766572666c6f7745524332303a207472616e7366657220616d6f756e74206578636565647320616c6c6f77616e63654f776e61626c653a2063616c6c6572206973206e6f7420746865206f776e657245524332303a207472616e736665722066726f6d20746865207a65726f206164647265737345524332303a20617070726f76652066726f6d20746865207a65726f206164647265737345524332303a2064656372656173656420616c6c6f77616e63652062656c6f77207a65726fa2646970667358221220ecb58743dc551d39b2b17c2b896d21ccba228828bd9447eb57245b1fec409a3f64736f6c634300060c0033",
    "sourcePath": "f:/Software Development/Dapps/monte-finance/contracts/Monte.sol",
    "compiler": {
        "name": "solc",
        "version": "0.6.12+commit.27d51765"
    },
    "functionHashes": {
        "allowance(address,address)": "dd62ed3e",
        "approve(address,uint256)": "095ea7b3",
        "balanceOf(address)": "70a08231",
        "decimals()": "313ce567",
        "decreaseAllowance(address,uint256)": "a457c2d7",
        "increaseAllowance(address,uint256)": "39509351",
        "isTaxActive()": "98a0dd09",
        "isTaxless(address)": "a5ae2d2f",
        "minTokenBeforeSwap()": "419adcd8",
        "name()": "06fdde03",
        "owner()": "8da5cb5b",
        "renounceOwnership()": "715018a6",
        "setIsTaxless(bool)": "d178b601",
        "setStakingPool(address)": "3028f63a",
        "setTaxActive(bool)": "2ffc1628",
        "setTaxFee(uint256)": "c4081a4c",
        "stakingPool()": "0c56ae3b",
        "symbol()": "95d89b41",
        "taxFee()": "a071dcf4",
        "totalSupply()": "18160ddd",
        "transfer(address,uint256)": "a9059cbb",
        "transferFrom(address,address,uint256)": "23b872dd",
        "transferOwnership(address)": "f2fde38b",
        "uniswapV2Pair()": "49bd5a5e",
        "uniswapV2Router()": "1694505e"
    },
    "gasEstimates": {
        "creation": {
            "codeDepositCost": "1083400",
            "executionCost": "infinite",
            "totalCost": "infinite"
        },
        "external": {
            "allowance(address,address)": "1338",
            "approve(address,uint256)": "infinite",
            "balanceOf(address)": "1165",
            "decimals()": "1080",
            "decreaseAllowance(address,uint256)": "infinite",
            "increaseAllowance(address,uint256)": "infinite",
            "isTaxActive()": "1121",
            "isTaxless(address)": "1203",
            "minTokenBeforeSwap()": "1109",
            "name()": "infinite",
            "owner()": "1104",
            "renounceOwnership()": "infinite",
            "setIsTaxless(bool)": "infinite",
            "setStakingPool(address)": "infinite",
            "setTaxActive(bool)": "infinite",
            "setTaxFee(uint256)": "infinite",
            "stakingPool()": "1105",
            "symbol()": "infinite",
            "taxFee()": "1131",
            "totalSupply()": "1110",
            "transfer(address,uint256)": "infinite",
            "transferFrom(address,address,uint256)": "infinite",
            "transferOwnership(address)": "infinite",
            "uniswapV2Pair()": "1170",
            "uniswapV2Router()": "1138"
        },
        "internal": {
            "_transfer(address,address,uint256)": "infinite",
            "swapAndDistribute()": "infinite"
        }
    }
}