{
    "contractName": "Staking",
    "abi": [
        {
            "inputs": [
                {
                    "internalType": "contract IERC20",
                    "name": "_token",
                    "type": "address"
                }
            ],
            "stateMutability": "nonpayable",
            "type": "constructor"
        },
        {
            "anonymous": false,
            "inputs": [
                {
                    "indexed": false,
                    "internalType": "address",
                    "name": "sender",
                    "type": "address"
                },
                {
                    "indexed": false,
                    "internalType": "uint256",
                    "name": "amountSent",
                    "type": "uint256"
                }
            ],
            "name": "OnDistribute",
            "type": "event"
        },
        {
            "anonymous": false,
            "inputs": [
                {
                    "indexed": false,
                    "internalType": "address",
                    "name": "sender",
                    "type": "address"
                },
                {
                    "indexed": false,
                    "internalType": "uint256",
                    "name": "amount",
                    "type": "uint256"
                }
            ],
            "name": "OnReinvest",
            "type": "event"
        },
        {
            "anonymous": false,
            "inputs": [
                {
                    "indexed": false,
                    "internalType": "address",
                    "name": "sender",
                    "type": "address"
                },
                {
                    "indexed": false,
                    "internalType": "uint256",
                    "name": "amount",
                    "type": "uint256"
                }
            ],
            "name": "OnStake",
            "type": "event"
        },
        {
            "anonymous": false,
            "inputs": [
                {
                    "indexed": false,
                    "internalType": "address",
                    "name": "sender",
                    "type": "address"
                },
                {
                    "indexed": false,
                    "internalType": "uint256",
                    "name": "amount",
                    "type": "uint256"
                }
            ],
            "name": "OnUnstake",
            "type": "event"
        },
        {
            "anonymous": false,
            "inputs": [
                {
                    "indexed": false,
                    "internalType": "address",
                    "name": "sender",
                    "type": "address"
                },
                {
                    "indexed": false,
                    "internalType": "uint256",
                    "name": "amount",
                    "type": "uint256"
                }
            ],
            "name": "OnWithdraw",
            "type": "event"
        },
        {
            "anonymous": false,
            "inputs": [
                {
                    "indexed": true,
                    "internalType": "address",
                    "name": "previousOwner",
                    "type": "address"
                },
                {
                    "indexed": true,
                    "internalType": "address",
                    "name": "newOwner",
                    "type": "address"
                }
            ],
            "name": "OwnershipTransferred",
            "type": "event"
        },
        {
            "inputs": [],
            "name": "distribute",
            "outputs": [],
            "stateMutability": "payable",
            "type": "function"
        },
        {
            "inputs": [
                {
                    "internalType": "address",
                    "name": "staker",
                    "type": "address"
                }
            ],
            "name": "dividendsOf",
            "outputs": [
                {
                    "internalType": "uint256",
                    "name": "",
                    "type": "uint256"
                }
            ],
            "stateMutability": "view",
            "type": "function"
        },
        {
            "inputs": [],
            "name": "owner",
            "outputs": [
                {
                    "internalType": "address",
                    "name": "",
                    "type": "address"
                }
            ],
            "stateMutability": "view",
            "type": "function"
        },
        {
            "inputs": [],
            "name": "profitPerShare",
            "outputs": [
                {
                    "internalType": "uint256",
                    "name": "",
                    "type": "uint256"
                }
            ],
            "stateMutability": "view",
            "type": "function"
        },
        {
            "inputs": [],
            "name": "renounceOwnership",
            "outputs": [],
            "stateMutability": "nonpayable",
            "type": "function"
        },
        {
            "inputs": [
                {
                    "internalType": "uint256",
                    "name": "_startTime",
                    "type": "uint256"
                }
            ],
            "name": "setStartTime",
            "outputs": [],
            "stateMutability": "nonpayable",
            "type": "function"
        },
        {
            "inputs": [
                {
                    "internalType": "contract IERC20",
                    "name": "_token",
                    "type": "address"
                }
            ],
            "name": "setToken",
            "outputs": [],
            "stateMutability": "nonpayable",
            "type": "function"
        },
        {
            "inputs": [
                {
                    "internalType": "uint256",
                    "name": "amount",
                    "type": "uint256"
                }
            ],
            "name": "stake",
            "outputs": [],
            "stateMutability": "nonpayable",
            "type": "function"
        },
        {
            "inputs": [
                {
                    "internalType": "address",
                    "name": "",
                    "type": "address"
                }
            ],
            "name": "stakeValue",
            "outputs": [
                {
                    "internalType": "uint256",
                    "name": "",
                    "type": "uint256"
                }
            ],
            "stateMutability": "view",
            "type": "function"
        },
        {
            "inputs": [
                {
                    "internalType": "address",
                    "name": "_owner",
                    "type": "address"
                },
                {
                    "internalType": "uint256",
                    "name": "_blockNumber",
                    "type": "uint256"
                }
            ],
            "name": "stakeValueAt",
            "outputs": [
                {
                    "internalType": "uint256",
                    "name": "",
                    "type": "uint256"
                }
            ],
            "stateMutability": "view",
            "type": "function"
        },
        {
            "inputs": [
                {
                    "internalType": "address",
                    "name": "",
                    "type": "address"
                }
            ],
            "name": "stakerPayouts",
            "outputs": [
                {
                    "internalType": "int256",
                    "name": "",
                    "type": "int256"
                }
            ],
            "stateMutability": "view",
            "type": "function"
        },
        {
            "inputs": [],
            "name": "startTime",
            "outputs": [
                {
                    "internalType": "uint256",
                    "name": "",
                    "type": "uint256"
                }
            ],
            "stateMutability": "view",
            "type": "function"
        },
        {
            "inputs": [],
            "name": "totalDistributions",
            "outputs": [
                {
                    "internalType": "uint256",
                    "name": "",
                    "type": "uint256"
                }
            ],
            "stateMutability": "view",
            "type": "function"
        },
        {
            "inputs": [],
            "name": "totalStaked",
            "outputs": [
                {
                    "internalType": "uint256",
                    "name": "",
                    "type": "uint256"
                }
            ],
            "stateMutability": "view",
            "type": "function"
        },
        {
            "inputs": [
                {
                    "internalType": "uint256",
                    "name": "_blockNumber",
                    "type": "uint256"
                }
            ],
            "name": "totalStakedAt",
            "outputs": [
                {
                    "internalType": "uint256",
                    "name": "",
                    "type": "uint256"
                }
            ],
            "stateMutability": "view",
            "type": "function"
        },
        {
            "inputs": [],
            "name": "totalStakers",
            "outputs": [
                {
                    "internalType": "uint256",
                    "name": "",
                    "type": "uint256"
                }
            ],
            "stateMutability": "view",
            "type": "function"
        },
        {
            "inputs": [
                {
                    "internalType": "address",
                    "name": "newOwner",
                    "type": "address"
                }
            ],
            "name": "transferOwnership",
            "outputs": [],
            "stateMutability": "nonpayable",
            "type": "function"
        },
        {
            "inputs": [
                {
                    "internalType": "uint256",
                    "name": "amount",
                    "type": "uint256"
                }
            ],
            "name": "unstake",
            "outputs": [],
            "stateMutability": "nonpayable",
            "type": "function"
        },
        {
            "inputs": [
                {
                    "internalType": "uint256",
                    "name": "amount",
                    "type": "uint256"
                }
            ],
            "name": "withdraw",
            "outputs": [],
            "stateMutability": "nonpayable",
            "type": "function"
        }
    ],
    "bytecode": "608060405234801561001057600080fd5b506040516116643803806116648339818101604052602081101561003357600080fd5b5051600061003f6100ae565b600080546001600160a01b0319166001600160a01b0383169081178255604051929350917f8be0079c531659141344cd1fd0a4f28419497f9722a3daafe3b4186f6b6457e0908290a350600180546001600160a01b0319166001600160a01b03929092169190911790556100b2565b3390565b6115a3806100c16000396000f3fe6080604052600436106101135760003560e01c8063817b1cd2116100a0578063c9c5323211610064578063c9c5323214610322578063d7a88e3c1461034c578063e4fc6b6d1461037f578063f2fde38b14610387578063fc8690a2146103ba57610113565b8063817b1cd2146102885780638650e92a1461029d57806386989038146102b25780638da5cb5b146102c7578063a694fc3a146102f857610113565b80632e1a7d4d116100e75780632e1a7d4d146101d15780633e0a322d146101fb5780636921091a14610225578063715018a61461025e57806378e979251461027357610113565b806265318b14610118578063144fa6d71461015d578063163db71b146101925780632e17de78146101a7575b600080fd5b34801561012457600080fd5b5061014b6004803603602081101561013b57600080fd5b50356001600160a01b03166103ed565b60408051918252519081900360200190f35b34801561016957600080fd5b506101906004803603602081101561018057600080fd5b50356001600160a01b03166104b8565b005b34801561019e57600080fd5b5061014b610540565b3480156101b357600080fd5b50610190600480360360208110156101ca57600080fd5b5035610546565b3480156101dd57600080fd5b50610190600480360360208110156101f457600080fd5b50356107cc565b34801561020757600080fd5b506101906004803603602081101561021e57600080fd5b5035610904565b34801561023157600080fd5b5061014b6004803603604081101561024857600080fd5b506001600160a01b03813516906020013561096b565b34801561026a57600080fd5b506101906109d2565b34801561027f57600080fd5b5061014b610a7e565b34801561029457600080fd5b5061014b610a84565b3480156102a957600080fd5b5061014b610a8a565b3480156102be57600080fd5b5061014b610a90565b3480156102d357600080fd5b506102dc610a96565b604080516001600160a01b039092168252519081900360200190f35b34801561030457600080fd5b506101906004803603602081101561031b57600080fd5b5035610aa5565b34801561032e57600080fd5b5061014b6004803603602081101561034557600080fd5b5035610ce4565b34801561035857600080fd5b5061014b6004803603602081101561036f57600080fd5b50356001600160a01b0316610d09565b610190610d1b565b34801561039357600080fd5b50610190600480360360208110156103aa57600080fd5b50356001600160a01b0316610d7a565b3480156103c657600080fd5b5061014b600480360360208110156103dd57600080fd5b50356001600160a01b0316610e7c565b6001600160a01b038116600090815260026020526040812054600754829161041d9161041891610e8e565b610ee7565b6001600160a01b038416600090815260036020526040902054909150811215610486576040805162461bcd60e51b81526020600482015260166024820152756469766964656e642063616c63206f766572666c6f7760501b604482015290519081900360640190fd5b6001600160a01b0383166000908152600360205260409020546104af908203600160401b610f3a565b9150505b919050565b6104c0610fa1565b6001600160a01b03166104d1610a96565b6001600160a01b03161461051a576040805162461bcd60e51b8152602060048201819052602482015260008051602061154e833981519152604482015290519081900360640190fd5b600180546001600160a01b0319166001600160a01b039290921691909117905542600955565b60045481565b60095415801590610558575060095442115b6105a4576040805162461bcd60e51b815260206004820152601860248201527729ba30b5b4b733903737ba103cb2ba1039ba30b93a32b21760411b604482015290519081900360640190fd5b336000908152600260205260409020548111156105f25760405162461bcd60e51b815260040180806020018281038252602f8152602001806114ce602f913960400191505060405180910390fd5b336000908152600a60209081526040808320600290925290912054610621919061061c8185610fa5565b611002565b60055461063590600b9061061c8185610fa5565b610646610641336103ed565b6107cc565b3360009081526002602052604090205481141561066f5760065461066b906001610fa5565b6006555b60055461067c9082610fa5565b600555336000908152600260205260409020546106999082610fa5565b3360009081526002602052604090208190556007546106bc916104189190610e8e565b3360008181526003602090815260408083209490945560015484516323b872dd60e01b815230600482015260248101949094526044840186905293516001600160a01b03909416936323b872dd93606480820194918390030190829087803b15801561072757600080fd5b505af115801561073b573d6000803e3d6000fd5b505050506040513d602081101561075157600080fd5b505161078e5760405162461bcd60e51b81526004018080602001828103825260268152602001806114a86026913960400191505060405180910390fd5b604080513381526020810183905281517fb9d33f227f3fa1826b0e39a934bcee3835b3332a74d0b2c2589ec8fc94c2b11f929181900390910190a150565b600954158015906107de575060095442115b61082a576040805162461bcd60e51b815260206004820152601860248201527729ba30b5b4b733903737ba103cb2ba1039ba30b93a32b21760411b604482015290519081900360640190fd5b80610834336103ed565b10156108715760405162461bcd60e51b81526004018080602001828103825260348152602001806114296034913960400191505060405180910390fd5b61088261041882600160401b610e8e565b336000818152600360205260408082208054949094019093559151909183156108fc02918491818181858888f193505050501580156108c5573d6000803e3d6000fd5b50604080513381526020810183905281517fbace9fd79d5ea02ed8b43fa96af07e4e8f859a2f71ff878c748f5c22c5780284929181900390910190a150565b61090c610fa1565b6001600160a01b031661091d610a96565b6001600160a01b031614610966576040805162461bcd60e51b8152602060048201819052602482015260008051602061154e833981519152604482015290519081900360640190fd5b600955565b6001600160a01b0382166000908152600a60205260408120546109a757506001600160a01b0382166000908152600260205260409020546109cc565b6001600160a01b0383166000908152600a602052604090206109c9908361115e565b90505b92915050565b6109da610fa1565b6001600160a01b03166109eb610a96565b6001600160a01b031614610a34576040805162461bcd60e51b8152602060048201819052602482015260008051602061154e833981519152604482015290519081900360640190fd5b600080546040516001600160a01b03909116907f8be0079c531659141344cd1fd0a4f28419497f9722a3daafe3b4186f6b6457e0908390a3600080546001600160a01b0319169055565b60095481565b60055481565b60075481565b60065481565b6000546001600160a01b031690565b60095415801590610ab7575060095442115b610b03576040805162461bcd60e51b815260206004820152601860248201527729ba30b5b4b733903737ba103cb2ba1039ba30b93a32b21760411b604482015290519081900360640190fd5b600154604080516370a0823160e01b8152336004820152905183926001600160a01b0316916370a08231916024808301926020929190829003018186803b158015610b4d57600080fd5b505afa158015610b61573d6000803e3d6000fd5b505050506040513d6020811015610b7757600080fd5b50511015610bb65760405162461bcd60e51b815260040180806020018281038252603081526020018061151e6030913960400191505060405180910390fd5b33600090815260026020526040902054610bdc57600654610bd8906001611293565b6006555b610be5816112ed565b600154604080516323b872dd60e01b81523360048201523060248201526044810184905290516001600160a01b03909216916323b872dd916064808201926020929091908290030181600087803b158015610c3f57600080fd5b505af1158015610c53573d6000803e3d6000fd5b505050506040513d6020811015610c6957600080fd5b5051610ca65760405162461bcd60e51b81526004018080602001828103825260248152602001806114056024913960400191505060405180910390fd5b604080513381526020810183905281517fba7a4fcc259e92765d167230b14c7e70479648b69f2a5adcc2b15c372806ec20929181900390910190a150565b600b54600090610cf757506005546104b3565b610d02600b8361115e565b90506104b3565b60026020526000908152604090205481565b348015610d7757600454610d2f9082611293565b600455610d3b8161139b565b604080513381526020810183905281517f3b5b764958bcf10eae6e214b635b729c52c8a4962688629cf597c3167cca2022929181900390910190a15b50565b610d82610fa1565b6001600160a01b0316610d93610a96565b6001600160a01b031614610ddc576040805162461bcd60e51b8152602060048201819052602482015260008051602061154e833981519152604482015290519081900360640190fd5b6001600160a01b038116610e215760405162461bcd60e51b815260040180806020018281038252602681526020018061145d6026913960400191505060405180910390fd5b600080546040516001600160a01b03808516939216917f8be0079c531659141344cd1fd0a4f28419497f9722a3daafe3b4186f6b6457e091a3600080546001600160a01b0319166001600160a01b0392909216919091179055565b60036020526000908152604090205481565b600082610e9d575060006109cc565b82820282848281610eaa57fe5b04146109c95760405162461bcd60e51b81526004018080602001828103825260218152602001806114fd6021913960400191505060405180910390fd5b6000610ef66000196002610f3a565b8210610f335760405162461bcd60e51b81526004018080602001828103825260258152602001806114836025913960400191505060405180910390fd5b50806104b3565b6000808211610f90576040805162461bcd60e51b815260206004820152601a60248201527f536166654d6174683a206469766973696f6e206279207a65726f000000000000604482015290519081900360640190fd5b818381610f9957fe5b049392505050565b3390565b600082821115610ffc576040805162461bcd60e51b815260206004820152601e60248201527f536166654d6174683a207375627472616374696f6e206f766572666c6f770000604482015290519081900360640190fd5b50900390565b6001600160801b0381111561101657600080fd5b6001600160801b0382111561102a57600080fd5b825461109057600080546001600160801b03848116600160801b908102600019430183166001600160801b031994851617831617845586546001810188558785526020852085549101805490941690831617808455935481900482160292169190911790555b82544390849060001981019081106110a457fe5b6000918252602090912001546001600160801b0316101561111f57600080546001600160801b03838116600160801b9081024383166001600160801b03199485161783161784558654600181018855878552602085208554910180549094169083161780845593548190048216029216919091179055611159565b82546000908490600019810190811061113457fe5b600091825260209091200180546001600160801b03808516600160801b029116179055505b505050565b815460009061116f575060006109cc565b82548390600019810190811061118157fe5b6000918252602090912001546001600160801b031682106111d1578254839060001981019081106111ae57fe5b600091825260209091200154600160801b90046001600160801b031690506109cc565b826000815481106111de57fe5b6000918252602090912001546001600160801b031682101561120757826000815481106111ae57fe5b8254600090600019015b8181111561126257600060026001838501010490508486828154811061123357fe5b6000918252602090912001546001600160801b0316116112555780925061125c565b6001810391505b50611211565b84828154811061126e57fe5b600091825260209091200154600160801b90046001600160801b031695945050505050565b6000828201838110156109c9576040805162461bcd60e51b815260206004820152601b60248201527f536166654d6174683a206164646974696f6e206f766572666c6f770000000000604482015290519081900360640190fd5b336000908152600a60209081526040808320600290925290912054611317919061061c8185611293565b60055461132b90600b9061061c8185611293565b6005546113389082611293565b600555336000908152600260205260409020546113559082611293565b336000908152600260205260408120919091556007546113759083610e8e565b905061138081610ee7565b33600090815260036020526040902080549190910190555050565b600554156113f157600854156113c1576008546113b9908290611293565b600060085590505b6005546113e9906113e0906113da84600160401b610e8e565b90610f3a565b60075490611293565b600755610d77565b6008546113fe9082611293565b6008555056fe5374616b65206661696c65642064756520746f206661696c6564207472616e736665722e43616e6e6f74207769746864726177206d6f7265206469766964656e6473207468616e20796f752068617665206561726e65642e4f776e61626c653a206e6577206f776e657220697320746865207a65726f20616464726573734f766572666c6f772e2043616e6e6f7420636f6e766572742075696e7420746f20696e742e556e7374616b65206661696c65642064756520746f206661696c6564207472616e736665722e43616e6e6f7420756e7374616b65206d6f726520546f6b656e207468616e20796f752068617665207374616b65642e536166654d6174683a206d756c7469706c69636174696f6e206f766572666c6f7743616e6e6f74207374616b65206d6f726520546f6b656e73207468616e20796f7520686f6c6420756e7374616b65642e4f776e61626c653a2063616c6c6572206973206e6f7420746865206f776e6572a2646970667358221220439c53d5e3e9ff2b651452a89c4b00041480944880aef000230fb5969b0941da64736f6c634300060c0033",
    "sourcePath": "f:/Software Development/Dapps/monte-finance/contracts/Staking.sol",
    "compiler": {
        "name": "solc",
        "version": "0.6.12+commit.27d51765"
    },
    "functionHashes": {
        "distribute()": "e4fc6b6d",
        "dividendsOf(address)": "0065318b",
        "owner()": "8da5cb5b",
        "profitPerShare()": "8650e92a",
        "renounceOwnership()": "715018a6",
        "setStartTime(uint256)": "3e0a322d",
        "setToken(address)": "144fa6d7",
        "stake(uint256)": "a694fc3a",
        "stakeValue(address)": "d7a88e3c",
        "stakeValueAt(address,uint256)": "6921091a",
        "stakerPayouts(address)": "fc8690a2",
        "startTime()": "78e97925",
        "totalDistributions()": "163db71b",
        "totalStaked()": "817b1cd2",
        "totalStakedAt(uint256)": "c9c53232",
        "totalStakers()": "86989038",
        "transferOwnership(address)": "f2fde38b",
        "unstake(uint256)": "2e17de78",
        "withdraw(uint256)": "2e1a7d4d"
    },
    "gasEstimates": {
        "creation": {
            "codeDepositCost": "1107800",
            "executionCost": "infinite",
            "totalCost": "infinite"
        },
        "external": {
            "distribute()": "infinite",
            "dividendsOf(address)": "infinite",
            "owner()": "1126",
            "profitPerShare()": "1043",
            "renounceOwnership()": "infinite",
            "setStartTime(uint256)": "infinite",
            "setToken(address)": "infinite",
            "stake(uint256)": "infinite",
            "stakeValue(address)": "1168",
            "stakeValueAt(address,uint256)": "infinite",
            "stakerPayouts(address)": "1234",
            "startTime()": "1109",
            "totalDistributions()": "1066",
            "totalStaked()": "1021",
            "totalStakedAt(uint256)": "infinite",
            "totalStakers()": "1065",
            "transferOwnership(address)": "infinite",
            "unstake(uint256)": "infinite",
            "withdraw(uint256)": "infinite"
        },
        "internal": {
            "_addStake(uint256)": "infinite",
            "_getCheckpointValueAt(struct Staking.Checkpoint storage ref[] storage pointer,uint256)": "infinite",
            "_increaseProfitPerShare(uint256)": "infinite",
            "_updateCheckpointValueAtNow(struct Staking.Checkpoint storage ref[] storage pointer,uint256,uint256)": "171180",
            "uintToInt(uint256)": "infinite"
        }
    }
}